{
  "_format": "hh-sol-artifact-1",
  "contractName": "BridgeContract",
  "sourceName": "contracts/ChainB/BridgeContract.sol",
  "abi": [
    {
      "inputs": [
        {
          "internalType": "address",
          "name": "_destToken",
          "type": "address"
        },
        {
          "internalType": "address",
          "name": "_stakingContract",
          "type": "address"
        },
        {
          "internalType": "uint256",
          "name": "_challengePeriod",
          "type": "uint256"
        }
      ],
      "stateMutability": "nonpayable",
      "type": "constructor"
    },
    {
      "anonymous": false,
      "inputs": [
        {
          "indexed": true,
          "internalType": "uint256",
          "name": "nonce",
          "type": "uint256"
        },
        {
          "indexed": false,
          "internalType": "address",
          "name": "user",
          "type": "address"
        },
        {
          "indexed": false,
          "internalType": "uint256",
          "name": "amount",
          "type": "uint256"
        }
      ],
      "name": "ClaimFinalized",
      "type": "event"
    },
    {
      "anonymous": false,
      "inputs": [
        {
          "indexed": true,
          "internalType": "uint256",
          "name": "nonce",
          "type": "uint256"
        },
        {
          "indexed": false,
          "internalType": "address",
          "name": "user",
          "type": "address"
        },
        {
          "indexed": false,
          "internalType": "uint256",
          "name": "amount",
          "type": "uint256"
        },
        {
          "indexed": false,
          "internalType": "address",
          "name": "relayer",
          "type": "address"
        }
      ],
      "name": "ClaimSubmitted",
      "type": "event"
    },
    {
      "anonymous": false,
      "inputs": [
        {
          "indexed": true,
          "internalType": "uint256",
          "name": "nonce",
          "type": "uint256"
        },
        {
          "indexed": false,
          "internalType": "address",
          "name": "badRelayer",
          "type": "address"
        }
      ],
      "name": "FraudDetected",
      "type": "event"
    },
    {
      "inputs": [
        {
          "internalType": "uint256",
          "name": "nonce",
          "type": "uint256"
        }
      ],
      "name": "challengeFraud",
      "outputs": [],
      "stateMutability": "nonpayable",
      "type": "function"
    },
    {
      "inputs": [],
      "name": "challengePeriod",
      "outputs": [
        {
          "internalType": "uint256",
          "name": "",
          "type": "uint256"
        }
      ],
      "stateMutability": "view",
      "type": "function"
    },
    {
      "inputs": [
        {
          "internalType": "uint256",
          "name": "",
          "type": "uint256"
        }
      ],
      "name": "claims",
      "outputs": [
        {
          "internalType": "address",
          "name": "user",
          "type": "address"
        },
        {
          "internalType": "uint256",
          "name": "amount",
          "type": "uint256"
        },
        {
          "internalType": "address",
          "name": "relayer",
          "type": "address"
        },
        {
          "internalType": "uint256",
          "name": "timestamp",
          "type": "uint256"
        },
        {
          "internalType": "bool",
          "name": "isFinalized",
          "type": "bool"
        },
        {
          "internalType": "bool",
          "name": "exists",
          "type": "bool"
        }
      ],
      "stateMutability": "view",
      "type": "function"
    },
    {
      "inputs": [],
      "name": "destToken",
      "outputs": [
        {
          "internalType": "contract DestToken",
          "name": "",
          "type": "address"
        }
      ],
      "stateMutability": "view",
      "type": "function"
    },
    {
      "inputs": [
        {
          "internalType": "uint256",
          "name": "nonce",
          "type": "uint256"
        }
      ],
      "name": "finalizeClaim",
      "outputs": [],
      "stateMutability": "nonpayable",
      "type": "function"
    },
    {
      "inputs": [],
      "name": "minStake",
      "outputs": [
        {
          "internalType": "uint256",
          "name": "",
          "type": "uint256"
        }
      ],
      "stateMutability": "view",
      "type": "function"
    },
    {
      "inputs": [
        {
          "internalType": "uint256",
          "name": "",
          "type": "uint256"
        }
      ],
      "name": "processedNonces",
      "outputs": [
        {
          "internalType": "bool",
          "name": "",
          "type": "bool"
        }
      ],
      "stateMutability": "view",
      "type": "function"
    },
    {
      "inputs": [],
      "name": "stakingContract",
      "outputs": [
        {
          "internalType": "contract StakingContract",
          "name": "",
          "type": "address"
        }
      ],
      "stateMutability": "view",
      "type": "function"
    },
    {
      "inputs": [
        {
          "internalType": "address",
          "name": "user",
          "type": "address"
        },
        {
          "internalType": "uint256",
          "name": "amount",
          "type": "uint256"
        },
        {
          "internalType": "uint256",
          "name": "nonce",
          "type": "uint256"
        }
      ],
      "name": "submitClaim",
      "outputs": [],
      "stateMutability": "nonpayable",
      "type": "function"
    },
    {
      "inputs": [],
      "name": "watcherAdmin",
      "outputs": [
        {
          "internalType": "address",
          "name": "",
          "type": "address"
        }
      ],
      "stateMutability": "view",
      "type": "function"
    }
  ],
  "bytecode": "0x6080604052670de0b6b3a76400006004553480156200001d57600080fd5b5060405162001634380380620016348339818101604052810190620000439190620001ba565b826000806101000a81548173ffffffffffffffffffffffffffffffffffffffff021916908373ffffffffffffffffffffffffffffffffffffffff16021790555081600160006101000a81548173ffffffffffffffffffffffffffffffffffffffff021916908373ffffffffffffffffffffffffffffffffffffffff16021790555033600260006101000a81548173ffffffffffffffffffffffffffffffffffffffff021916908373ffffffffffffffffffffffffffffffffffffffff1602179055508060038190555050505062000216565b600080fd5b600073ffffffffffffffffffffffffffffffffffffffff82169050919050565b600062000147826200011a565b9050919050565b62000159816200013a565b81146200016557600080fd5b50565b60008151905062000179816200014e565b92915050565b6000819050919050565b62000194816200017f565b8114620001a057600080fd5b50565b600081519050620001b48162000189565b92915050565b600080600060608486031215620001d657620001d562000115565b5b6000620001e68682870162000168565b9350506020620001f98682870162000168565b92505060406200020c86828701620001a3565b9150509250925092565b61140e80620002266000396000f3fe608060405234801561001057600080fd5b506004361061009e5760003560e01c806391dae5191161006657806391dae519146101335780639661fb9714610163578063a888c2cd14610181578063ee99205c146101b6578063f3f480d9146101d45761009e565b80630b5665d5146100a35780632168083f146100bf578063375b3c0a146100dd5780634c7400a7146100fb5780637a97111414610117575b600080fd5b6100bd60048036038101906100b89190610d41565b6101f2565b005b6100c761052f565b6040516100d49190610df3565b60405180910390f35b6100e5610553565b6040516100f29190610e1d565b60405180910390f35b61011560048036038101906101109190610e38565b610559565b005b610131600480360381019061012c9190610e38565b6108b6565b005b61014d60048036038101906101489190610e38565b610ba0565b60405161015a9190610e80565b60405180910390f35b61016b610bc0565b6040516101789190610eaa565b60405180910390f35b61019b60048036038101906101969190610e38565b610be6565b6040516101ad96959493929190610ec5565b60405180910390f35b6101be610c7c565b6040516101cb9190610f47565b60405180910390f35b6101dc610ca2565b6040516101e99190610e1d565b60405180910390f35b600454600160009054906101000a900473ffffffffffffffffffffffffffffffffffffffff1673ffffffffffffffffffffffffffffffffffffffff166316934fc4336040518263ffffffff1660e01b81526004016102509190610eaa565b602060405180830381865afa15801561026d573d6000803e3d6000fd5b505050506040513d601f19601f820116820180604052508101906102919190610f77565b10156102d2576040517f08c379a00000000000000000000000000000000000000000000000000000000081526004016102c990611001565b60405180910390fd5b6006600082815260200190815260200160002060009054906101000a900460ff1615610333576040517f08c379a000000000000000000000000000000000000000000000000000000000815260040161032a9061106d565b60405180910390fd5b6005600082815260200190815260200160002060040160019054906101000a900460ff1615610397576040517f08c379a000000000000000000000000000000000000000000000000000000000815260040161038e906110d9565b60405180910390fd5b6040518060c001604052808473ffffffffffffffffffffffffffffffffffffffff1681526020018381526020013373ffffffffffffffffffffffffffffffffffffffff168152602001428152602001600015158152602001600115158152506005600083815260200190815260200160002060008201518160000160006101000a81548173ffffffffffffffffffffffffffffffffffffffff021916908373ffffffffffffffffffffffffffffffffffffffff1602179055506020820151816001015560408201518160020160006101000a81548173ffffffffffffffffffffffffffffffffffffffff021916908373ffffffffffffffffffffffffffffffffffffffff1602179055506060820151816003015560808201518160040160006101000a81548160ff02191690831515021790555060a08201518160040160016101000a81548160ff021916908315150217905550905050807ff230c0a37714cb6248ccfb8baebbe544adf72541461c4efa4b95fbc91b7fba8f848433604051610522939291906110f9565b60405180910390a2505050565b60008054906101000a900473ffffffffffffffffffffffffffffffffffffffff1681565b60045481565b600260009054906101000a900473ffffffffffffffffffffffffffffffffffffffff1673ffffffffffffffffffffffffffffffffffffffff163373ffffffffffffffffffffffffffffffffffffffff16146105e9576040517f08c379a00000000000000000000000000000000000000000000000000000000081526004016105e09061117c565b60405180910390fd5b6005600082815260200190815260200160002060040160019054906101000a900460ff1661064c576040517f08c379a0000000000000000000000000000000000000000000000000000000008152600401610643906111e8565b60405180910390fd5b6005600082815260200190815260200160002060040160009054906101000a900460ff16156106b0576040517f08c379a00000000000000000000000000000000000000000000000000000000081526004016106a790611254565b60405180910390fd5b60035460056000838152602001908152602001600020600301546106d491906112a3565b421115610716576040517f08c379a000000000000000000000000000000000000000000000000000000000815260040161070d90611323565b60405180910390fd5b60006005600083815260200190815260200160002060020160009054906101000a900473ffffffffffffffffffffffffffffffffffffffff169050600160009054906101000a900473ffffffffffffffffffffffffffffffffffffffff1673ffffffffffffffffffffffffffffffffffffffff1663c96be4cb826040518263ffffffff1660e01b81526004016107ac9190610eaa565b600060405180830381600087803b1580156107c657600080fd5b505af11580156107da573d6000803e3d6000fd5b5050505060056000838152602001908152602001600020600080820160006101000a81549073ffffffffffffffffffffffffffffffffffffffff021916905560018201600090556002820160006101000a81549073ffffffffffffffffffffffffffffffffffffffff021916905560038201600090556004820160006101000a81549060ff02191690556004820160016101000a81549060ff02191690555050817fd333905bc6384a6f4b921b01917e6ee525790cae96dbdc5d4f60cb7efb594244826040516108aa9190610eaa565b60405180910390a25050565b6005600082815260200190815260200160002060040160019054906101000a900460ff16610919576040517f08c379a0000000000000000000000000000000000000000000000000000000008152600401610910906111e8565b60405180910390fd5b6005600082815260200190815260200160002060040160009054906101000a900460ff161561097d576040517f08c379a000000000000000000000000000000000000000000000000000000000815260040161097490611254565b60405180910390fd5b60035460056000838152602001908152602001600020600301546109a191906112a3565b4210156109e3576040517f08c379a00000000000000000000000000000000000000000000000000000000081526004016109da9061138f565b60405180910390fd5b60016005600083815260200190815260200160002060040160006101000a81548160ff02191690831515021790555060016006600083815260200190815260200160002060006101000a81548160ff02191690831515021790555060008054906101000a900473ffffffffffffffffffffffffffffffffffffffff1673ffffffffffffffffffffffffffffffffffffffff166340c10f196005600084815260200190815260200160002060000160009054906101000a900473ffffffffffffffffffffffffffffffffffffffff1660056000858152602001908152602001600020600101546040518363ffffffff1660e01b8152600401610ae59291906113af565b600060405180830381600087803b158015610aff57600080fd5b505af1158015610b13573d6000803e3d6000fd5b50505050807f3ac45d6c0a346665e27df2c8f2e84e02265dfd37a4f4a8cddce18bc4634f02c46005600084815260200190815260200160002060000160009054906101000a900473ffffffffffffffffffffffffffffffffffffffff166005600085815260200190815260200160002060010154604051610b959291906113af565b60405180910390a250565b60066020528060005260406000206000915054906101000a900460ff1681565b600260009054906101000a900473ffffffffffffffffffffffffffffffffffffffff1681565b60056020528060005260406000206000915090508060000160009054906101000a900473ffffffffffffffffffffffffffffffffffffffff16908060010154908060020160009054906101000a900473ffffffffffffffffffffffffffffffffffffffff16908060030154908060040160009054906101000a900460ff16908060040160019054906101000a900460ff16905086565b600160009054906101000a900473ffffffffffffffffffffffffffffffffffffffff1681565b60035481565b600080fd5b600073ffffffffffffffffffffffffffffffffffffffff82169050919050565b6000610cd882610cad565b9050919050565b610ce881610ccd565b8114610cf357600080fd5b50565b600081359050610d0581610cdf565b92915050565b6000819050919050565b610d1e81610d0b565b8114610d2957600080fd5b50565b600081359050610d3b81610d15565b92915050565b600080600060608486031215610d5a57610d59610ca8565b5b6000610d6886828701610cf6565b9350506020610d7986828701610d2c565b9250506040610d8a86828701610d2c565b9150509250925092565b6000819050919050565b6000610db9610db4610daf84610cad565b610d94565b610cad565b9050919050565b6000610dcb82610d9e565b9050919050565b6000610ddd82610dc0565b9050919050565b610ded81610dd2565b82525050565b6000602082019050610e086000830184610de4565b92915050565b610e1781610d0b565b82525050565b6000602082019050610e326000830184610e0e565b92915050565b600060208284031215610e4e57610e4d610ca8565b5b6000610e5c84828501610d2c565b91505092915050565b60008115159050919050565b610e7a81610e65565b82525050565b6000602082019050610e956000830184610e71565b92915050565b610ea481610ccd565b82525050565b6000602082019050610ebf6000830184610e9b565b92915050565b600060c082019050610eda6000830189610e9b565b610ee76020830188610e0e565b610ef46040830187610e9b565b610f016060830186610e0e565b610f0e6080830185610e71565b610f1b60a0830184610e71565b979650505050505050565b6000610f3182610dc0565b9050919050565b610f4181610f26565b82525050565b6000602082019050610f5c6000830184610f38565b92915050565b600081519050610f7181610d15565b92915050565b600060208284031215610f8d57610f8c610ca8565b5b6000610f9b84828501610f62565b91505092915050565b600082825260208201905092915050565b7f52656c61796572206e6f74207374616b65640000000000000000000000000000600082015250565b6000610feb601283610fa4565b9150610ff682610fb5565b602082019050919050565b6000602082019050818103600083015261101a81610fde565b9050919050565b7f4e6f6e636520616c72656164792070726f636573736564000000000000000000600082015250565b6000611057601783610fa4565b915061106282611021565b602082019050919050565b600060208201905081810360008301526110868161104a565b9050919050565b7f436c61696d20616c72656164792070656e64696e670000000000000000000000600082015250565b60006110c3601583610fa4565b91506110ce8261108d565b602082019050919050565b600060208201905081810360008301526110f2816110b6565b9050919050565b600060608201905061110e6000830186610e9b565b61111b6020830185610e0e565b6111286040830184610e9b565b949350505050565b7f4f6e6c7920776174636865722063616e206368616c6c656e6765000000000000600082015250565b6000611166601a83610fa4565b915061117182611130565b602082019050919050565b6000602082019050818103600083015261119581611159565b9050919050565b7f436c61696d20646f6573206e6f74206578697374000000000000000000000000600082015250565b60006111d2601483610fa4565b91506111dd8261119c565b602082019050919050565b60006020820190508181036000830152611201816111c5565b9050919050565b7f416c72656164792066696e616c697a6564000000000000000000000000000000600082015250565b600061123e601183610fa4565b915061124982611208565b602082019050919050565b6000602082019050818103600083015261126d81611231565b9050919050565b7f4e487b7100000000000000000000000000000000000000000000000000000000600052601160045260246000fd5b60006112ae82610d0b565b91506112b983610d0b565b92508282019050808211156112d1576112d0611274565b5b92915050565b7f4368616c6c656e676520706572696f64206f7665720000000000000000000000600082015250565b600061130d601583610fa4565b9150611318826112d7565b602082019050919050565b6000602082019050818103600083015261133c81611300565b9050919050565b7f4368616c6c656e676520706572696f6420616374697665000000000000000000600082015250565b6000611379601783610fa4565b915061138482611343565b602082019050919050565b600060208201905081810360008301526113a88161136c565b9050919050565b60006040820190506113c46000830185610e9b565b6113d16020830184610e0e565b939250505056fea264697066735822122070b81a67cfec069fcb6df27a793a486029e3529191216cfe231afbcd689cc1f864736f6c63430008130033",
  "linkReferences": {},
  "deployedLinkReferences": {}
}