{
  "_format": "hh-sol-artifact-1",
  "contractName": "StakingContract",
  "sourceName": "contracts/ChainB/StakingContract.sol",
  "abi": [
    {
      "anonymous": false,
      "inputs": [
        {
          "indexed": true,
          "internalType": "address",
          "name": "previousOwner",
          "type": "address"
        },
        {
          "indexed": true,
          "internalType": "address",
          "name": "newOwner",
          "type": "address"
        }
      ],
      "name": "OwnershipTransferred",
      "type": "event"
    },
    {
      "anonymous": false,
      "inputs": [
        {
          "indexed": true,
          "internalType": "address",
          "name": "relayer",
          "type": "address"
        },
        {
          "indexed": false,
          "internalType": "uint256",
          "name": "amount",
          "type": "uint256"
        }
      ],
      "name": "Slashed",
      "type": "event"
    },
    {
      "anonymous": false,
      "inputs": [
        {
          "indexed": true,
          "internalType": "address",
          "name": "relayer",
          "type": "address"
        },
        {
          "indexed": false,
          "internalType": "uint256",
          "name": "amount",
          "type": "uint256"
        }
      ],
      "name": "Staked",
      "type": "event"
    },
    {
      "inputs": [],
      "name": "owner",
      "outputs": [
        {
          "internalType": "address",
          "name": "",
          "type": "address"
        }
      ],
      "stateMutability": "view",
      "type": "function"
    },
    {
      "inputs": [],
      "name": "renounceOwnership",
      "outputs": [],
      "stateMutability": "nonpayable",
      "type": "function"
    },
    {
      "inputs": [
        {
          "internalType": "address",
          "name": "relayer",
          "type": "address"
        }
      ],
      "name": "slash",
      "outputs": [],
      "stateMutability": "nonpayable",
      "type": "function"
    },
    {
      "inputs": [],
      "name": "stake",
      "outputs": [],
      "stateMutability": "payable",
      "type": "function"
    },
    {
      "inputs": [
        {
          "internalType": "address",
          "name": "",
          "type": "address"
        }
      ],
      "name": "stakes",
      "outputs": [
        {
          "internalType": "uint256",
          "name": "",
          "type": "uint256"
        }
      ],
      "stateMutability": "view",
      "type": "function"
    },
    {
      "inputs": [
        {
          "internalType": "address",
          "name": "newOwner",
          "type": "address"
        }
      ],
      "name": "transferOwnership",
      "outputs": [],
      "stateMutability": "nonpayable",
      "type": "function"
    }
  ],
  "bytecode": "0x608060405234801561001057600080fd5b5061002d61002261003260201b60201c565b61003a60201b60201c565b6100fe565b600033905090565b60008060009054906101000a900473ffffffffffffffffffffffffffffffffffffffff169050816000806101000a81548173ffffffffffffffffffffffffffffffffffffffff021916908373ffffffffffffffffffffffffffffffffffffffff1602179055508173ffffffffffffffffffffffffffffffffffffffff168173ffffffffffffffffffffffffffffffffffffffff167f8be0079c531659141344cd1fd0a4f28419497f9722a3daafe3b4186f6b6457e060405160405180910390a35050565b6109228061010d6000396000f3fe6080604052600436106100555760003560e01c806316934fc41461005a5780633a4b66f114610097578063715018a6146100a15780638da5cb5b146100b8578063c96be4cb146100e3578063f2fde38b1461010c575b600080fd5b34801561006657600080fd5b50610081600480360381019061007c9190610617565b610135565b60405161008e919061065d565b60405180910390f35b61009f61014d565b005b3480156100ad57600080fd5b506100b6610236565b005b3480156100c457600080fd5b506100cd61024a565b6040516100da9190610687565b60405180910390f35b3480156100ef57600080fd5b5061010a60048036038101906101059190610617565b610273565b005b34801561011857600080fd5b50610133600480360381019061012e9190610617565b6103e7565b005b60016020528060005260406000206000915090505481565b60003411610190576040517f08c379a0000000000000000000000000000000000000000000000000000000008152600401610187906106ff565b60405180910390fd5b34600160003373ffffffffffffffffffffffffffffffffffffffff1673ffffffffffffffffffffffffffffffffffffffff16815260200190815260200160002060008282546101df919061074e565b925050819055503373ffffffffffffffffffffffffffffffffffffffff167f9e71bc8eea02a63969f509818f2dafb9254532904319f9dbda79b67bd34a5f3d3460405161022c919061065d565b60405180910390a2565b61023e61046a565b61024860006104e8565b565b60008060009054906101000a900473ffffffffffffffffffffffffffffffffffffffff16905090565b61027b61046a565b6000600160008373ffffffffffffffffffffffffffffffffffffffff1673ffffffffffffffffffffffffffffffffffffffff16815260200190815260200160002054905060008111610302576040517f08c379a00000000000000000000000000000000000000000000000000000000081526004016102f9906107ce565b60405180910390fd5b6000600160008473ffffffffffffffffffffffffffffffffffffffff1673ffffffffffffffffffffffffffffffffffffffff1681526020019081526020016000208190555061034f61024a565b73ffffffffffffffffffffffffffffffffffffffff166108fc829081150290604051600060405180830381858888f19350505050158015610394573d6000803e3d6000fd5b508173ffffffffffffffffffffffffffffffffffffffff167f4ed05e9673c26d2ed44f7ef6a7f2942df0ee3b5e1e17db4b99f9dcd261a339cd826040516103db919061065d565b60405180910390a25050565b6103ef61046a565b600073ffffffffffffffffffffffffffffffffffffffff168173ffffffffffffffffffffffffffffffffffffffff160361045e576040517f08c379a000000000000000000000000000000000000000000000000000000000815260040161045590610860565b60405180910390fd5b610467816104e8565b50565b6104726105ac565b73ffffffffffffffffffffffffffffffffffffffff1661049061024a565b73ffffffffffffffffffffffffffffffffffffffff16146104e6576040517f08c379a00000000000000000000000000000000000000000000000000000000081526004016104dd906108cc565b60405180910390fd5b565b60008060009054906101000a900473ffffffffffffffffffffffffffffffffffffffff169050816000806101000a81548173ffffffffffffffffffffffffffffffffffffffff021916908373ffffffffffffffffffffffffffffffffffffffff1602179055508173ffffffffffffffffffffffffffffffffffffffff168173ffffffffffffffffffffffffffffffffffffffff167f8be0079c531659141344cd1fd0a4f28419497f9722a3daafe3b4186f6b6457e060405160405180910390a35050565b600033905090565b600080fd5b600073ffffffffffffffffffffffffffffffffffffffff82169050919050565b60006105e4826105b9565b9050919050565b6105f4816105d9565b81146105ff57600080fd5b50565b600081359050610611816105eb565b92915050565b60006020828403121561062d5761062c6105b4565b5b600061063b84828501610602565b91505092915050565b6000819050919050565b61065781610644565b82525050565b6000602082019050610672600083018461064e565b92915050565b610681816105d9565b82525050565b600060208201905061069c6000830184610678565b92915050565b600082825260208201905092915050565b7f4d7573742073656e642045544820746f207374616b6500000000000000000000600082015250565b60006106e96016836106a2565b91506106f4826106b3565b602082019050919050565b60006020820190508181036000830152610718816106dc565b9050919050565b7f4e487b7100000000000000000000000000000000000000000000000000000000600052601160045260246000fd5b600061075982610644565b915061076483610644565b925082820190508082111561077c5761077b61071f565b5b92915050565b7f4e6f207374616b6520746f20736c617368000000000000000000000000000000600082015250565b60006107b86011836106a2565b91506107c382610782565b602082019050919050565b600060208201905081810360008301526107e7816107ab565b9050919050565b7f4f776e61626c653a206e6577206f776e657220697320746865207a65726f206160008201527f6464726573730000000000000000000000000000000000000000000000000000602082015250565b600061084a6026836106a2565b9150610855826107ee565b604082019050919050565b600060208201905081810360008301526108798161083d565b9050919050565b7f4f776e61626c653a2063616c6c6572206973206e6f7420746865206f776e6572600082015250565b60006108b66020836106a2565b91506108c182610880565b602082019050919050565b600060208201905081810360008301526108e5816108a9565b905091905056fea2646970667358221220d283b3f9596c6e65025a5818055b5f48daefc0e57e5a251dd165960a1e4dc81664736f6c63430008130033",
  "linkReferences": {},
  "deployedLinkReferences": {}
}