{
  "_format": "hh-sol-artifact-1",
  "contractName": "LockContract",
  "sourceName": "contracts/ChainA/LockContract.sol",
  "abi": [
    {
      "inputs": [
        {
          "internalType": "address",
          "name": "_tokenAddress",
          "type": "address"
        }
      ],
      "stateMutability": "nonpayable",
      "type": "constructor"
    },
    {
      "anonymous": false,
      "inputs": [
        {
          "indexed": true,
          "internalType": "address",
          "name": "user",
          "type": "address"
        },
        {
          "indexed": false,
          "internalType": "uint256",
          "name": "amount",
          "type": "uint256"
        },
        {
          "indexed": false,
          "internalType": "uint256",
          "name": "nonce",
          "type": "uint256"
        }
      ],
      "name": "Locked",
      "type": "event"
    },
    {
      "inputs": [],
      "name": "currentNonce",
      "outputs": [
        {
          "internalType": "uint256",
          "name": "",
          "type": "uint256"
        }
      ],
      "stateMutability": "view",
      "type": "function"
    },
    {
      "inputs": [
        {
          "internalType": "uint256",
          "name": "amount",
          "type": "uint256"
        }
      ],
      "name": "lockTokens",
      "outputs": [],
      "stateMutability": "nonpayable",
      "type": "function"
    },
    {
      "inputs": [],
      "name": "sourceToken",
      "outputs": [
        {
          "internalType": "contract IERC20",
          "name": "",
          "type": "address"
        }
      ],
      "stateMutability": "view",
      "type": "function"
    }
  ],
  "bytecode": "0x608060405234801561001057600080fd5b50604051610716380380610716833981810160405281019061003291906100db565b806000806101000a81548173ffffffffffffffffffffffffffffffffffffffff021916908373ffffffffffffffffffffffffffffffffffffffff16021790555050610108565b600080fd5b600073ffffffffffffffffffffffffffffffffffffffff82169050919050565b60006100a88261007d565b9050919050565b6100b88161009d565b81146100c357600080fd5b50565b6000815190506100d5816100af565b92915050565b6000602082840312156100f1576100f0610078565b5b60006100ff848285016100c6565b91505092915050565b6105ff806101176000396000f3fe608060405234801561001057600080fd5b50600436106100415760003560e01c80635f8aaa69146100465780636e27d88914610064578063adb610a314610080575b600080fd5b61004e61009e565b60405161005b91906102d6565b60405180910390f35b61007e6004803603810190610079919061032c565b6100c2565b005b610088610251565b6040516100959190610368565b60405180910390f35b60008054906101000a900473ffffffffffffffffffffffffffffffffffffffff1681565b60008111610105576040517f08c379a00000000000000000000000000000000000000000000000000000000081526004016100fc906103e0565b60405180910390fd5b60008054906101000a900473ffffffffffffffffffffffffffffffffffffffff1673ffffffffffffffffffffffffffffffffffffffff166323b872dd3330846040518463ffffffff1660e01b815260040161016293929190610421565b6020604051808303816000875af1158015610181573d6000803e3d6000fd5b505050506040513d601f19601f820116820180604052508101906101a59190610490565b6101e4576040517f08c379a00000000000000000000000000000000000000000000000000000000081526004016101db90610509565b60405180910390fd5b600160008154809291906101f790610558565b91905055503373ffffffffffffffffffffffffffffffffffffffff167fd4665e3049283582ba6f9eba07a5b3e12dab49e02da99e8927a47af5d134bea5826001546040516102469291906105a0565b60405180910390a250565b60015481565b600073ffffffffffffffffffffffffffffffffffffffff82169050919050565b6000819050919050565b600061029c61029761029284610257565b610277565b610257565b9050919050565b60006102ae82610281565b9050919050565b60006102c0826102a3565b9050919050565b6102d0816102b5565b82525050565b60006020820190506102eb60008301846102c7565b92915050565b600080fd5b6000819050919050565b610309816102f6565b811461031457600080fd5b50565b60008135905061032681610300565b92915050565b600060208284031215610342576103416102f1565b5b600061035084828501610317565b91505092915050565b610362816102f6565b82525050565b600060208201905061037d6000830184610359565b92915050565b600082825260208201905092915050565b7f416d6f756e74206d757374206265203e20300000000000000000000000000000600082015250565b60006103ca601283610383565b91506103d582610394565b602082019050919050565b600060208201905081810360008301526103f9816103bd565b9050919050565b600061040b82610257565b9050919050565b61041b81610400565b82525050565b60006060820190506104366000830186610412565b6104436020830185610412565b6104506040830184610359565b949350505050565b60008115159050919050565b61046d81610458565b811461047857600080fd5b50565b60008151905061048a81610464565b92915050565b6000602082840312156104a6576104a56102f1565b5b60006104b48482850161047b565b91505092915050565b7f5472616e73666572206661696c65640000000000000000000000000000000000600082015250565b60006104f3600f83610383565b91506104fe826104bd565b602082019050919050565b60006020820190508181036000830152610522816104e6565b9050919050565b7f4e487b7100000000000000000000000000000000000000000000000000000000600052601160045260246000fd5b6000610563826102f6565b91507fffffffffffffffffffffffffffffffffffffffffffffffffffffffffffffffff820361059557610594610529565b5b600182019050919050565b60006040820190506105b56000830185610359565b6105c26020830184610359565b939250505056fea2646970667358221220d1550158c5a6c2d0c57609b0f5b0448804fbf8c3c58b7c62aad78bd4a6fa1b0664736f6c63430008130033",
  "linkReferences": {},
  "deployedLinkReferences": {}
}